:10000000B0D10220B12900005B2F0100E1290000DE
:10001000E1290000E1290000E1290000E1290000B8
:100020000000000000000000000000000D2900009A
:10003000E129000000000000B5280000472701006A
:100040007129000071290000712900007129000048
:100050007129000071290000712900007129000038
:100060007129000071290000712900007129000028
:100070007129000071290000712900007129000018
:100080007129000071290000712900007129000008
:1000900071290000712900007129000071290000F8
:1000A00071290000712900007129000071290000E8
:1000B00071290000712900007129000071290000D8
:1000C00071290000712900007129000071290000C8
:1000D00071290000712900007129000071290000B8
:1000E00071290000712900007129000071290000A8
:1000F0007129000071290000712900007129000098
:100100007129000071290000712900007129000087
:100110007129000071290000712900007129000077
:100120007129000071290000712900007129000067
:100130007129000071290000712900007129000057
:100140007129000071290000712900007129000047
:040150007129000011
:1001540053B94AB9002908BF00281CBF4FF0FF312A
:100164004FF0FF3000F070B9ADF1080C6DE904CE2A
:1001740000F006F8DDF804E0DDE9022304B070477E
:100184002DE9F047089E0D4604468A46002B7FD190
:100194008A42174641D9B2FA82F24AB1C2F1200129
:1001A40005FA02F39740944020FA01F141EA030A68
:1001B4004FEA17484FEA144C1FFA87F9BAFBF8FEC6
:1001C40008FB1EA30EFB09F14CEA0343994206D92E
:1001D400FB1802D2994200F224810EF1FF3E591A13
:1001E400A3B2B1FBF8F008FB101100FB09F943EAD4
:1001F4000144A14505D93C1902D2A14500F20E8162
:100204000138A4EB090440EA0E4000211EB1D44099
:100214000023C6E90043BDE8F08702B9FFDEB2FA65
:1002240082F2002A4FD1CB1B4FEA174E1FFA87F8F0
:100234000121250CB3FBFEFC0EFB1C302B4608FBF6
:100244000CF945EA0045A9450AD97D192CBF0123BB
:100254000023A94502D9002B00F0D9800CF1FF3C02
:10026400A5EB0905A3B2B5FBFEF00EFB105508FB88
:1002740000F843EA0544A04505D93C1902D2A0453B
:1002840000F2C9800138A4EB080440EA0C40BDE741
:100294008B4208D9002E00F0B1800021C6E9000588
:1002A4000846BDE8F087B3FA83F1002946D1AB4292
:1002B400C0F0A780824240F2A4800846002EAAD053
:1002C400C6E9004AA7E7C2F12000974001FA02F309
:1002D4004FEA174EC14024FA00F51FFA87F89440FC
:1002E4001D43B1FBFEF02B0C0EFB101100FB08FCB0
:1002F40043EA01439C4509D9FB182CBF0121002185
:100304009C4502D9002900F095800138A3EB0C0329
:10031400ADB2B3FBFEF10EFB113301FB08FC45EA61
:100324000345AC4505D97D1902D2AC4500F289805C
:100334000139A5EB0C0341EA00417AE7C1F120043D
:100344008B4002FA01F705FA01FCE24020FA04F8B6
:10035400E54000FA01FE134348EA0C024FEA134851
:100364004FEA124C1FFA83F9B5FBF8FA08FB1A5549
:100374000AFB09F04CEA054C60450AD913EB0C0C56
:100384002CBF01250025604501D9002D55D00AF167
:10039400FF3AACEB000C92B2BCFBF8F008FB10CCBB
:1003A40000FB09F942EA0C4CE14505D913EB0C0CAE
:1003B40001D2E1453BD8013840EA0A40ACEB090CD4
:1003C400A0FB0789CC4545464A4602D306D1C6451B
:1003D40004D20138B8EB070569EB03022EB3BEEB78
:1003E40005036CEB020C23FA01F20CFA04F42CFA68
:1003F40001F300211443C6E900430CE731463046BB
:1004040009E7841A65EB030301209A4656E7ACF129
:10041400020C3D4424E702383C4434E702383C44AF
:10042400EFE6AEF1020E3B44D9E63146F3E602387C
:100434009C44C1E702383B4468E7AAF1020A9C44A1
:10044400A7E702393D4474E7704700BF10F8012B59
:1004540011F8013B012A28BF9A42F7D0D01A7047FD
:10046400034613F8012B002AFBD1181A01387047F0
:10047400034A0346126812B10248037010477047DA
:1004840010120020359F02200022024B01201A7016
:10049400FFF7EEBF349F0220024B58700220FFF793
:1004A400E7BF00BF359F0220084611B1034811F091
:1004B40045BA0122024B1A70FFF7DABF24F5010096
:1004C400349F022030B50B4D89B003AC0FCD0FC45F
:1004D4002B680949236001230222009303A8074BD8
:1004E40004F090F9014610B1054811F027FA09B05B
:1004F40030BD00BF30DD0100A8DD0100B8DD010022
:1005040040F50100024B1B780BB101F05BBE704754
:10051400349F022008B502680C4B0D481A6004F0A1
:10052400C3FB002003F0D2FF014620B10948BDE817
:10053400084011F003BA084811F000FA074801F026
:1005440037FE014608B10648F1E708BD1012002045
:100554003001002066F5010086F501004401002009
:100564009DF50100064A0749137883F001031370CF
:10057400054A002B08BF1146044B18681CF03AB911
:10058400379F0220A96C020085F501005812002053
:100594000E4B10B580F001042146186815F0DFF900
:1005A4000B4B2146186815F0DAF90A4B21461868F6
:1005B40015F0D5F9084B2146186815F0D0F9074B0A
:1005C4002146BDE81040186815F0C9B91C12002076
:1005D400141200205C12002054120020601200202B
:1005E400124B10B51B680C4683421DD171B9104BD8
:1005F400104918681CF0FEF80F4B1B68A3B10122C8
:100604000E4804704270BDE81040184707290BD10A
:10061400074B0B4918681CF0EDF8074B1B681BB11E
:10062400002206480270EDE710BD00BF141200203E
:100634005C120020B56C020064120020389F022076
:10064400BD6C02002DE9F04F89B0B7480FF0CCFC27
:10065400B64E3060002800F013832921B44AB5480F
:1006640016F09AFC11F02EF90021B24A15F06BFC39
:10067400B14816F062FBFF222C21AF4816F0D0FCE3
:100684002921AE4AAC4816F087FC08220121AA4869
:1006940016F03EFC46221221A74816F039FC1E2211
:1006A4001021A54816F034FC01225321A24816F06B
:1006B4002FFC4FF07F4259219F4816F06DFCFF221A
:1006C4005C219D4816F0ACFC012250219A4816F09A
:1006D4001FFC01225121984816F01AFC02225221D3
:1006E400954816F015FC7F225C21934816F098FC7F
:1006F40048F28901924A904816F04EFC914A48F219
:100704008E018D4816F0D2FC8F4816F016FB8A49EC
:100714008D4816F0C1FB29218C4A8B4816F03CFC0D
:100724007F222C21884816F07BFC04220121824878
:1007340016F0EEFB864816F000FBFF222C218448BD
:1007440016F06EFC2921834A814816F025FC2A21E3
:10075400814A7F4816F020FC012223217C4816F0B0
:10076400D7FB052212217A4816F0D2FB0A22102167
:10077400774816F0CDFB4FF0FF323921744816F05C
:100784000BFCB2223C21724816F04AFC03223021B1
:100794006F4816F0BDFB48F28901704A6C4816F0A8
:1007A400FBFB48F28E016E4A694816F07FFC002478
:1007B4006C4816F0C2FA33222C216A4816F030FC39
:1007C4002921644A674816F0E7FB2A21664A6548EE
:1007D40016F0E2FB01222321624816F099FB002265
:1007E4001221604816F094FB032210215D4816F094
:1007F4008FFB48F28901594A5A4816F0CDFB48F25A
:100804008E015A4A574816F051FC594816F095FA89
:100814000A220121564816F07BFBFF222C21544862
:1008240016F0FEFB29214B4A514816F0B5FB2A214C
:10083400494A4F4816F0B0FB012223214C4816F0D8
:1008440067FB012253214A4816F062FB5921424AB0
:10085400474816F0A1FBFF225C21454816F0E0FB57
:1008640001225021424816F053FB41F229013A4A31
:100874003F4816F091FB41F22A01364A3C4816F0F3
:100884008BFB4FF07F423921394816F085FBB222A9
:100894003C21374816F0C4FB03223021344816F0BB
:1008A40037FB4FF07F4240F23921314816F074FB98
:1008B40041F239212F4A2E4816F06EFB48F2890185
:1008C400294A2B4816F068FB48F28E012A4A284828
:1008D40016F0ECFB6FF0030241F20501244816F018
:1008E40017FB6FF0070241F20401214816F010FBD8
:1008F400224D234B05222B60B2211D486C6016F05B
:1009040007FB0422B3211A4816F002FB4FF4967237
:10091400B021174816F0FCFA2A46BE21144816F0F6
:10092400C5FB184D184F31E0CD6C02002012002099
:10093400FFCACBFF9C12002090120020FD111CFF67
:10094400FDCE7DFFF40100208C1200205AB069FF17
:1009540094120020C0C0C0FF808080FF300000FFE0
:100964008401002098120020808000FF4C010020A8
:1009740088120020800000FFBC01002068120020C3
:10098400F7AB01002412002010EA010010F09AFFD6
:1009940000210EF093F924F0030202EBA40204F008
:1009A4000301120101EB8101286012B2090114F064
:1009B40075FF502255F8040B114614F0EDFF013475
:1009C400394655F8040C1BF0A7FC0C2CDED110F0B2
:1009D40079FF00210EF01CFFAB4CAC4A00212060D3
:1009E40015F0B1FA206802210EF0D0FE20684122F1
:1009F400062114F053FF872220684FF49A7114F0F3
:100A0400CBFFA34920681BF0F5FE10F05BFF00212B
:100A14000EF0FEFE9F4CA04A0021206015F093FAD0
:100A2400206802210EF0B2FE03222068114614F061
:100A340035FF442220684FF49D7114F0ADFF9749AF
:100A440020681BF0D7FE10F03DFF00210EF036F9B0
:100A54000022934C1146206014F020FF44222068A9
:100A6400114614F099FF8F4920681BF055FC10F0D3
:100A740029FF00210EF0CCFE8B4C052120600EF0E6
:100A840085FE012120681BF07FFDD22246212068CB
:100A940014F004FF1E22B421206814F07DFF834962
:100AA40020681BF0A7FE824A0021206815F04BFA4B
:100AB40010F008FF00210DF007FE7E4D5A220A2196
:100AC400286014F0EBFE32222868782114F064FFC9
:100AD4002868002115F050FA774A2868002115F09B
:100AE40032FA286801211AF0E7FD002128680EF087
:100AF4008FFE724B724918601BF07CFE71492868A6
:100B040014F0F9FD10F0DEFE00210EF081FE6E4DB2
:100B1400022128600EF03AFE2868AA220A2114F065
:100B2400BDFE19222868782114F036FF2868674929
:100B34001BF060FE286801211BF026FD5C4A0021A1
:100B4400286815F000FA10F0BDFE00210EF0B6F88A
:100B54005F4F4422C021386014F0A0FE442238685C
:100B6400114614F019FF5B4938681BF0D5FB10F0EF
:100B7400A9FE00210EF04CFE574D022128600EF014
:100B840005FEAA222868114614F088FE192278214D
:100B9400286814F001FF514928681BF02BFE01213D
:100BA40028681BF0F1FC0021414A286815F0CBF9B4
:100BB4000020FFF7EDFC3068B94683684FF48046A7
:100BC4005B6898470027DFF82CA1002200235046D9
:100BD40005A90FF0EBFB834638B10CF0D5F80021E2
:100BE4004FF4247010F0ACF8EDE79DF81480B8F1E0
:100BF400010F1AD0B8F1020FE7D19DF81C10384A42
:100C0400344BD9F80000002914BF114619461BF0D3
:100C140083FB9DF81C10334A304B2868002914BF0D
:100C2400114619461BF0E6FDCFE79DF81C30012B59
:100C34000FD0022B1BD0C3B903932B481CF0E8FC44
:100C440020681A491BF0D6FD039B1846FFF7A0FC49
:100C5400BBE725484FF480420023CDE9006710F03C
:100C6400E1FB224920681BF0C5FD5846EEE71E480B
:100C74001CF0CEFC20681E491BF0BCFD4046E5E795
:100C840009B0BDE8F08F00BF1C1200208C120020B8
:100C940085F50100A012002090120020D56C0200FE
:100CA400A412002034EA010058120020E06C020073
:100CB400981200201412002088120020181200201C
:100CC400E56C0200E50500005C120020BD6C02002A
:100CD400541200201CEA010060120020C96C0200BA
:100CE40028EA0100C66C020040070020A96C02003B
:100CF400EC6C0200580800200268014B1A6070472F
:100D040064120020012304490B700872002200239E
:100D140002480FF0F7BA00BF7012002058080020F4
:100D2400022304490B7008720022002302480FF0CA
:100D3400E9BA00BF7C1200205808002038B50578B5
:100D44000446012D0AD0022D12D005BB104810F024
:100D5400F5FDBDE838400220FFF7D4BF0D4810F080
:100D6400EDFD2846FFF7CEFFBDE83840FFF7AABBEC
:100D74004178094B094A0A48002914BF114619460B
:100D840010F0DCFD6078BDE83840FFF7C9BF38BD1E
:100D9400693B0400743B0400C96C0200C66C020089
:100DA400823B040007B50C4B68460093FFF7A4FF91
:100DB4000A4B01A80193FFF7ADFBFFF783FB08483B
:100DC40010F0BCFD0120FFF79DFF00214FF400400F
:100DD4000FF0B6FFF9E700BFD7180100410D00007E
:100DE4008A3B04000B6801330B60014B1B681847F6
:100DF4002C020020014B1860704700BF2C02002019
:100E040007B50B46002102460191034801A900F0F1
:100E140051F903B05DF804FBE90D00002DE9F84F2A
:100E2400B0F81890044619F0080893460DD001292B
:100E34000CBF49F0100949F02009A0F818908BF371
:100E44001188BFF36F8FBDE8F88F09F007090229F5
:100E540007D1204610F07FFD0028F0D00128238B15
:100E640050D16769218B002F15DA256821F007011D
:100E7400C4E9008841F0010121830026218B01F09F
:100E8400070ACA4502D0A368002B5CD10DB9002E15
:100E940074D0002358E001F007035A1F012A20D818
:100EA40021F00701062B256889B2C4E900880CD11A
:100EB400002D2B4638BF00232BB1628B1B680132F7
:100EC4006283002BF8D141F002012046218310F007
:100ED40042FD06460028D1D0238B43F02003238310
:100EE400CBE7042B0CD121F0070189B220462183E2
:100EF40010F031FD05460028BFD041F020012183C8
:100F04000025BAE7032809D1226923F007031668EC
:100F140043F00603002523832F46AFE7042806D1B8
:100F2400226923F00703566843F00403F2E7052817
:100F340006D1226923F00703966843F00503E9E725
:100F440000252E46E8E7012341F0080121838BF3B5
:100F54001188BFF36F8F03BB002D33D116B1204628
:100F64002049B0474FF02003EFF3118B83F311882E
:100F7400BFF36F8F238B23F008032383238BDA06BD
:100F840028D5012123F010032383B4F8189009F025
:100F9400070900297FF45BAF51E7A1680029DBD082
:100FA4000B68002B38BF0023994652463B46204627
:100FB400D1F804B0D847B9F1000FCDD04946D9F8DB
:100FC4000030EEE729463B46524620462D6810F095
:100FD400DEFCC1E713F020011EBF23F02003022131
:100FE4002383D2E7BF190100F0B5024601680A273E
:100FF4000020074E0C46237801319D5D6D0701D416
:101004001460F0BD07FB0033A3F13000F2E700BF2A
:101014003A4304002DE9F74F14469946D378244AFD
:101024006F2B13F802A006460AF003020F46019242
:101034002DD028D8582B14BF0A251025AA464FF0C6
:10104400000BDDF8308052465B4630463946FFF7E8
:101054007FF8092AD3B21FD830335F45DBB208BF0B
:10106400564508F8013D01D3C84512D823789B069C
:1010740005D5082D16D1A37843F00803A370404684
:1010840003B0BDE8F08F03F0F703702BD3E7082516
:10109400D4E706460F46D6E7019A012A0CBF373338
:1010A4005733DAE7102DEAD1A37843F01003E5E7CC
:1010B4003A4304002DE9F04F82468B4691461C4684
:1010C400002593B099F8000008B928463AE309F1DD
:1010D40001032528029306D05946D0470028C0F2C0
:1010E40031830135F1E1182200210CA81CF044FCE5
:1010F40099F80130252B59D0029A164612F8013B73
:101104002B2B00F08B8079D8202B00F08C80232BA4
:1011140000F08E809DF8383003F04402442A03D155
:101124006FF386138DF838309DF83830059643F008
:1011340080038DF8383033782A2B7ED19DF83930EE
:1011440043F001038DF83930731C05931A782E2A65
:101154000CBF012100219DF8392061F341028DF873
:1011640039200BD15A1C05925A782A2A7BD19DF832
:101174003920023342F004028DF83920194611F85F
:10118400010B6C2800F0B6807DD8682800F08480BC
:101194006A2800F0B9804C2800F0BD809DF8392001
:1011A40019466FF3C6028DF8392080E009F1020276
:1011B40002928DF83B309DF83930D90740F14981CE
:1011C40054F8048BB8F1000F07DA9DF83820C8F101
:1011D400000842F004028DF838205A0740F1428199
:1011E40054F8047B002F80F241819DF839306FF36D
:1011F40041038DF839304FF0FF3737E12D2B06D0FE
:10120400302B87D19DF8383043F0400303E09DF83C
:10121400383043F004038DF838306EE79DF83830E9
:1012240043F00803F7E79DF8383043F01003F2E782
:101234009DF8383043F02003EDE705A8FFF7D4FE0E
:10124400059BB34281D09DF838100F90C1F3400242
:1012540042EAD072520062F07F0201F07D010A433B
:101264008DF8382071E705A8FFF7BEFE9DF83830E9
:101274001090C3F3400242EAD07060F341038DF84A
:101284003830059B7AE774289DF8392040D07A28B5
:1012940084D11346062228E05A78682A9DF839201A
:1012A40021D1012161F3C6028DF83920991C0B4626
:1012B40013F8012B782A02938DF83B209DF83930DE
:1012C40000F2BF80572A33D8412A03D0453A022A74
:1012D40000F2B78004229DF83A3062F302038DF8DD
:1012E4003A30012384E01346022262F3C6038DF8E8
:1012F4003930DCE75A786C2A9DF8392001D1042171
:10130400D0E713460322F0E705229DF83930ECE7D5
:1013140013460722E9E7BDF8383023F4F04323F0FD
:10132400020343F4804343F00203ADF83830BEE7D0
:10133400A2F15801202900F2848001A050F821F084
:10134400091400004714000047140000471400006B
:10135400471400004714000047140000471400001D
:1013640047140000D91200004714000009140000BB
:10137400C9130000D9120000D9120000D9120000CC
:1013840047140000C913000047140000471400006C
:101394004714000047140000111400000914000051
:1013A4002D14000047140000471400002D14000001
:1013B40047140000091400004714000047140000FB
:1013C4000914000001209DF83A1003F0780360F33B
:1013D4000201402B8DF83A1002BF9DF8381041F0FD
:1013E40001018DF83810632A31D1003B18BF012365
:1013F4009DF83820C2F340010B4363F341028DF89A
:101404003820D8E602209DF83A10DEE703219DF843
:101414003A2003F07803A3F1400061F3020243424F
:101424008DF83A204341E3E703219DF83A2013F075
:10143400780F61F3020214BF012300238DF83A20D0
:10144400D6E79DF8383043F001038DF83830002397
:10145400CEE79DF93820002AACBF4FF0FF38DDF805
:101464003C80BAE69F077FF5C6AE109F0023CDE906
:101474000F339DF83A309DF8391003F00703012B20
:10148400C1F3C30137D1CB1E042B21D8DFE803F00D
:1014940003070720200054F8042BD31704E0073473
:1014A40024F00704F4E80223CDE90C239DF8383036
:1014B40013F0030655D04A4659465046029B10F095
:1014C400B0FD0028C0F23E810544DDF80890F9E53E
:1014D40054F8042B01294FEAE273CDE90C2305D11A
:1014E4009DF830300C9300230D93DFE70229DDD102
:1014F400BDF93020D1E7022B23D1CB1E042B13D806
:10150400DFE803F0030A0A12120000232268201DF8
:101514000C920D930446C9E7073424F00700F0E861
:101524000223CDE90C23F5E754F8043B01290C937D
:101534004FF000030D93D3D00229B7D1BDF830305A
:10154400D0E7042B07D1073424F00704F4E802237E
:10155400CDE90C23AAE7032B04BF54F8043B0C93F6
:10156400A4E79DF83B007828AFD8622820D8252826
:101574003FF4B2AD5828A8D1DDE90C010DF12E03DA
:1015840000930EAA06ABFFF745FD8146002F0DF12F
:101594002E000BDB9DF83820A0EB09036FF38612B5
:1015A4009F428DF8382001D9FF1A0F9707463CE077
:1015B4006338152889D801A252F820F03F1600009C
:1015C400A1160000CF140000CF140000CF140000B7
:1015D400CF140000A1160000CF140000CF140000A7
:1015E400CF140000CF140000FF160000CD16000039
:1015F400D1160000CF140000CF140000191600000B
:10160400CF140000CD160000CF140000CF1400004A
:10161400CD160000002FDDF830900ADB394648462D
:101624001CF0DFF9002609EB0007B9F1000F0CD11B
:101634004BE74846FEF714FFF4E700260C9B0DF138
:1016440019078DF818300DF11809A7EB090306B135
:1016540001339DF83A20D00669D5023352060F991A
:1016640048BF109A0B4448BF9B18B8F1000F76DDB1
:101674009DF83820A8EB0308C2F3800303935307B3
:101684006DD4500661D53EB159463046D047002846
:1016940058DB039B01351E46302357E01E0711D447
:1016A40013F0100618BF2026DDE90C23002A73F17D
:1016B4000001BFF661AF524263EB43032D26CDE92F
:1016C4000C2359E72B26EFE7002655E70C9848B37F
:1016D4000DF12E030093002106AB0EAAFFF79AFC2E
:1016E400BDF83A30814603F0EF0343F4F04343F08E
:1016F40010030026ADF83A3048E70C9B07293FF663
:10170400E4AEDFE801F00D04060D08080D0D1D70B0
:10171400DBE61D80D9E62846E917C3E90001D4E6D3
:101724001D60D2E62E4F0646A7F105098DE7110785
:1017340048BF013392E7184659460393D04700281F
:10174400039B04DA13B0BDE8F08F202345444246DE
:10175400002AA5EB080108F1FF38ECDC0D462EB198
:1017640059463046D0470028ECDB01359DF83A3025
:10177400D90601D41A0705D559463020D047002888
:10178400E0DB01359DF83A30DB0606D559469DF875
:101794003B00D0470028D5DB01350F9E2E44731B38
:1017A400002B15DC3B464A465946504610F039FC9E
:1017B4000028C7DB0544A844A8EB0503002B7FF7EA
:1017C40084AE59462020D0470028BBDB0135F3E71F
:1017D40059463020D0470028B4DB0135DFE700BF8D
:1017E400A43B0400094B1B68072B0DD1084B1B6855
:1017F400023B032B08D8074AD35C2BB1404080F34B
:1018040011884FF0040002DF002070473001FF0010
:101814003401FF00A53B0400094B0A4900F01F02F4
:101824004009012808BF0B4603EB8203D3F80022CA
:1018340022F0E04242F04052C3F80022704700BF59
:10184400002584500028845070B54FF02003EFF336
:10185400118683F31188BFF36F8F01240B4D0C4B5A
:101864000020C3F80045C5F8D046FFF7D5FF204651
:10187400FFF7D2FFC5F80447C5F80449C5F8004B83
:1018840086F31188BFF36F8F002070BD00400050B5
:101894000010005048B1054B1A68054BB2FBF3F237
:1018A400044B504343F00103184770477C04002065
:1018B40040420F00A0DD0100014B1970704700BFCA
:1018C400000007200020014B18707047000007201B
:1018D400014B18681BF0A6B9B8120020054B13B5CC
:1018E4001868002382680093146819461A46A047B2
:1018F40002B010BDA81200200749D1E8EF3F43F021
:101904000102C1E8E02F0028F7D1DB0703D4034824
:1019140008391BF02BBC7047B4120020380A002091
:10192400F0B5394B85B002AC06460D4693E803008A
:101934004FF4006284E803004FF0FF333349344826
:101944000FF05CFB334934481BF076FD0022334B27
:1019540033492046C3E901121A6006F017FE044613
:1019640078B9304806F0F2FD044650B92E492F48A4
:1019740001AA13F037FD044618B9019B9A681AB9F5
:101984003060204605B0F0BD0C333360002BF8D036
:1019940027480EF029FB274F386027480EF024FB18
:1019A4003A68002A2CD000282AD0836822465B6833
:1019B4002249984710F053FB214F386010B96FF05B
:1019C4000B04DEE710F04BFB78600028F7D0326898
:1019D4001C4B10215A611C4A3F685A600422366825
:1019E4009A601A620222DE62184EAA62184A998428
:1019F400DE61986199811F60AC612A62EB62C0E785
:101A04006FF01204BDE700BF44DD010080B0022086
:101A1400380A0020A93B0400500A0020AC12002020
:101A2400D518000060020020B43B0400BE3B040053
:101A3400C63B0400A8120020CC3B0400FD180000A3
:101A4400B81200203002002000FC072000F8072014
:101A540040EA01002DE9FF410D46134C064621687A
:101A640028461746FEF7F2FCA04628B12846E16C4A
:101A7400FEF7ECFCA8B901204C2444430B4B04F1C1
:101A840008000293444463682A46CDE90073314652
:101A94004FF0FF3340440EF04DF810B9012384F8A1
:101AA400483004B0BDE8F081C01200207D20010060
:101AB40037B50D4C0D492046FFF732FF88B90C4D60
:101AC4004FF47C4228460B491BF023FA23680A4A48
:101AD40006490A4800950EF067F910B90122084B2F
:101AE4001A7003B030BD00BF58130020D80A00207C
:101AF400EC13002000040720591A00005C13002096
:101B04003A9F02200B4B30B51B7804465BB90A4B55
:101B1400186810B1DA6C4AB901204C2242439D186E
:101B24009C50696030BD6FF07600FBE76FF00B00EE
:101B3400F8E700BF3A9F0220C01200204C22034B5A
:101B440002FB003090F84800704700BFC01200202C
:101B540037B54C240B4601214443CDE90021054D02
:101B640028190834D0E90B1228190DF0D1FF03B05D
:101B740030BD00BFC0120020044608B54FF020025B
:101B8400EFF3118382F31188BFF36F8F10F0DBFD45
:101B9400204601F017F803480FF0D0FE00F0CAFE0B
:101BA400FCE700BFD23B040010B507480EF01CFA56
:101BB400064C074B1860204601F0AEF92046FFF7AB
:101BC40019F9002010BD00BFFB3B0400D91B000025
:101BD400F81300200A2838B50446074D04D12868B4
:101BE40083680D215B68984728688368E1B25B6865
:101BF4009847204638BD00BFF81300200E4A70B540
:101C0400841A05460C20A3100C4C0E465C43E4B227
:101C140000FB04204021783010F039FA011E05DB66
:101C2400074B03EBC40463689847002128463346F6
:101C3400BDE87040184700BF0C140020B76DDBB638
:101C440078EA01002DE9F0410C25104E8046841BF2
:101C5400A3100F4C0F465C43E4B2654305F17800D2
:101C64004021304410F02CFA011E09DB094A731993
:101C7400C3E91C27084B53F83430BDE8F04118473A
:101C840040463B46BDE8F041184700BF0C14002015
:101C9400B76DDBB62721010078EA01002DE9F8438E
:101CA400002201210646052000F094FD052000F0E5
:101CB40073FD114805F094FD104B984219D113F0AF
:101CC4002CFB00244FF01C080C27DFF83490F56837
:101CD400494608FB04500FF08DFE002807DB012362
:101CE40007FB04551C44042CAB67F0D10020BDE86D
:101CF400F8836FF00400FAE73D1D00000000AD0B0F
:101D040098EA010001460C2300224B43084870B5B1
:101D1400C4187833D4E91C561844226710F0EEF93D
:101D24002DB132462B46BDE870400248184770BDBD
:101D34000C14002048060020052811D8DFE800F024
:101D4400030E10100C0A074B986F10F0070007D110
:101D5400FFF7D8BF0220FBE70320F9E70120F7E7EC
:101D6400704700BF0C14002008B54FF02003EFF3B8
:101D7400118183F31188BFF36F8F124A136843F004
:101D8400020013F0010310600CD04FF05022D2F87F
:101D94000C34D2F80C2413F0010303D00A4810F0D9
:101DA400ADF9012381F31188BFF36F8F23B1BDE82F
:101DB40008400020FFF7A6BF0120BDE8084005F059
:101DC4001FBD00BFAC14002084140020074BD3E8CF
:101DD400EF2F22F00201C3E8E01F0028F7D1D30758
:101DE40002D4012005F060BD704700BFAC14002090
:101DF4007FB500220123CDE9022304ABCDE90433EE
:101E0400094A6B46CDF800D0CDF804D010F0BBF9E8
:101E1400002805DB4FF48042002368460EF0DEFF05
:101E240007B05DF804FB00BF5D2101002DE9F84314
:101E3400012206463949D1E8EF3FC1E8E02F0028E6
:101E4400F9D133B9364937484B60CB608A600FF01B
:101E5400E4FD731E012B32D8012E07D14FF050231D
:101E6400D3F81C3403F00303022B28D01BF0DAFA56
:101E7400044618B92C4B1B78002B47D14FF0200394
:101E8400EFF3118583F31188BFF36F8F0124274F7C
:101E9400DFF89C80DFF89C904FF05022D2F8183481
:101EA400D2F81824D2030CD503F00303022B01D07B
:101EB400012E06D124B385F31188BFF36F8FBDE8DB
:101EC400F883C4B1284600F043FD4FF05022D2F805
:101ED4001835DBB2012BDFD139680029DCD00021B1
:101EE400396039680221C2F818152022C8F8802107
:101EF400C9F80030D0E7002121200EF021FFE4E7EB
:101F04004FF050230222C3F80423D8E74FF05023A4
:101F140002220546C3F80823B9E700BFB014002025
:101F2400FC1300202814002079A002200451005042
:101F340000E100E00850005008B500F00BF800285C
:101F440004DBBDE80840024801F0C4BF08BD00BF7F
:101F540000EB010008B505490548FFF7D3FD00284B
:101F6400A9BF044B04481860002008BD39270100AC
:101F7400453C0400DC1400202AF8FFFF024B828950
:101F840081681868FFF7E4BDDC14002008B5024B33
:101F94001868FFF7D3FD08BDDC140020044A136859
:101FA400C81A20F07F40034413600FF091B900BFBA
:101FB400EC1400202DE9F0474FF480374FF000096E
:101FC400860000F1500406F15026A40006F5803680
:101FD400A4B204F15024D6F84035DFF86C8021F027
:101FE4007F4504F580348740D8F804A5A3EB0A03A1
:101FF40023F07F432AF07F42012BC6F8402502D10B
:1020040013201BF015FA0AF10202AB1A23F07F43E6
:10201400B3F5000F88BF1546C4F80090236825F077
:102024007F43C8F84473C6F84035D8F804359A4558
:1020340006D0EB1A023B23F07F43B3F5000F01D81F
:10204400BDE8F0872B46CFE700500150F8B50024D7
:1020540027460F4E0F4B104A18461D6804B1F8BDB1
:10206400D2F80413C903FAD531680029F7D03460D3
:1020740031684FF48031C2F848130124D2F8401576
:1020840025B100205A681F60A847E3E70560E6E72A
:1020940040510150E01400200050015038B5002494
:1020A4004FF480334FF400120D4D0121C5F808455B
:1020B400C5F804330B4B1520C3F88021224600F0E9
:1020C40089FB152000F068FB0123074A02201360F6
:1020D400064A2B601360FFF7A9FE204638BD00BFF7
:1020E4000050015000E100E008500150E8140020C5
:1020F400134BB0F1FF3F08BF1846013800281CDD20
:102104009842A8BF18460F4BD3F804250E4B196804
:10211400521A12F4000F18BF002022F07F4301333B
:102124000A4A03440A48106000205060044A93425B
:1021340094BFC9188918FFF73DBF0020E3E700BF2B
:10214400FFFF7F0000500150EC140020E014002039
:10215400A11F00004FF02002EFF3118382F31188D6
:10216400BFF36F8F064AD2F80405064A1268801A34
:1021740020F07F4083F31188BFF36F8F704700BF57
:1021840000500150EC1400204B1E59425941014BA0
:10219400197070473B9F022010B51C46034B1B6807
:1021A4000BB110789847204610BD00BFF0140020F2
:1021B40020B1034B02681A6042685A6000207047DD
:1021C400F014002000B50E4B89B01B788DF8070081
:1021D4009BB10021182202A81BF0CEFB094B002062
:1021E40003930DF107030493012302A9ADF81430FE
:1021F40004F014F909B05DF804FB6FF00C00F9E782
:102204003B9F02203CEB010001480FF059BA00BF8C
:102214008CEB010008B508B34368042B07D0082BE6
:1022240013D0F3B100680EF099F900200CE00022FD
:102234000368D3E8EF1F012903D1C3E8E02F002886
:10224400F7D1094808BF104608BD036800201B7871
:10225400064A03F5807342F82300F5E76FF4E04083
:10226400F2E70348F0E700BFE98FFFFF00000350E7
:10227400EA8FFFFF10B5044618B90D4B0D485B6893
:102284009847616808290DD031F004030AD011F091
:10229400020108D0214608480EF008F80023236004
:1022A4000023636010BD142220681BF065FBF7E770
:1022B400140500205A3C0400F814002010B504460C
:1022C40018B9164B16485B6898476368042B23D0EB
:1022D400082B21D0CBB92368BBB94FF0FF324FF0A4
:1022E400FF3321460F480DF0AFFF08B923681BB92F
:1022F4000A4B0D485B6898471422002120681BF0A4
:102304003BFB636843F00203636020681AF0AAFE93
:10231400636843F00103636010BD00BF140500202F
:102324005A3C0400F8140020803C040008B540B373
:102334004368042B0BD0082B16D003B300684FF06E
:10234400FF324FF0FF330EF091F858B115E001223F
:102354000368D3E8EF1F002903D1C3E8E02F002866
:10236400F7D10AD1002008BD0368074A1B7803F59A
:10237400807352F82330002BF4D00448F3E7044868
:10238400F1E76FF4E040EEE700000350E98FFFFF50
:10239400EA8FFFFF08B506494023142205481AF0C6
:1023A40046FEBDE80840044904480FF0DBB900BF0D
:1023B40014150020F8140020A4EB010094EB010094
:1023C400F0B50746264E8DB001AD0C460FCE0FC5B5
:1023D4000FCE0FC596E8070085E807003846002FA2
:1023E40039D0002C39D0381F0246214610344B789E
:1023F4000D781B0443EA0563CD7804312B4311F8AF
:10240400025C8C4243EA052342F8043FEFD10421E5
:10241400144C8A07036916D1C3F30742A55C1A0E4C
:10242400A25C42EA0562C3F30725655DDBB2E35CA7
:1024340042EA054242EA03220CAD21F003032B4495
:1024440053F82C3C534050F8042F013153402C29AD
:102454000361DED101200DB0F0BD2046FBE700BFD3
:102464004CDD0100AD3C04002DE9F0431546064661
:1024740089B0002858D0002959D0002A59D01023F7
:102484000A46684619462C4C10F061F929466846FC
:1024940010F075F9A14605F11007A035E8466A4623
:1024A40010231178013B615C02F8011BF9D16846E5
:1024B40010F0AAF9694604A810F0DFF901A905A8EB
:1024C40010F0DBF902A906A810F0D7F903A907A8B0
:1024D40010F0D3F91023684619460DEB030210F0EF
:1024E40036F939466846103710F049F9AF42D5D16C
:1024F400102498F80030013C19F8033008F8013B27
:10250400F7D1684610F080F92946684610F037F98B
:1025140010236A461946304610F019F9684610220D
:10252400214610F021F9012009B0BDE8F0830846E6
:10253400FAE71046F8E700BFAD3C04002DE9F04F80
:10254400002703689DB003934368DFF8B8A10493A0
:102554008368039C0593C3680291069303690793F8
:102564004369DDE906E2089383690993C369DDE9F8
:1025740008CB98460A93059B0193049B0093029B06
:10258400019EDD590CAB2DBADD515AF8043B0437DA
:1025940005EB03094FEAF22585EAB21585EA72656F
:1025A4004D442BEA020302EA0C0983EA09032B4493
:1025B4004344DDE900154FEA74384D4088EAB40815
:1025C400254001EA060985EA090588EAB458A844C1
:1025D400402F03EB0E054344B646D84640F08180B5
:1025E4004FF0100A46490B9151460AF1010A1CAEFC
:1025F4000AF00F0706EB870757F8406C01F00F0944
:102604004FEAB64801F10E070931029688EAF61836
:1026140001F00F011CAE06EB890906EB810107F0FE
:102624000F0751F8401C06EB870759F8406C57F820
:10263400407C3144029E4FEAF74E88EAD6088EEA7F
:10264400774E8EEA972E414471440B9E49F8401C04
:102654004FEAF52905EA020889EAB5192CEA0507C3
:1026640056F804EB87EA080789EA75694F4477440A
:102674000B96009E3944594404EA060E84EA060B7C
:10268400019E4FEA73370E4487EAB3070BEA030B44
:102694008BEA0E0BB04687EAB357009E5F44BAF14B
:1026A400400FE3463944019623D1039E0E44049916
:1026B40006601944059B4160234400998360069B8E
:1026C4000B44C360079B43440361089B2B44436151
:1026D400099B134483610A9B6344C3611DB0BDE835
:1026E400F08F0099E346CDE9004194461C462A4602
:1026F40045E7944600942A461C4645460B4673E734
:10270400F8EB0100B8EB010010B50446C8B1702223
:10271400002110F029F80B4B0B4A0C49C4E90023A3
:102724000B4B0C48C4E902130B4BC4E9040301200E
:102734000A4BA36103F17453A3F52303A3F6924355
:10274400E36110BD85AE67BB67E6096A72F36E3C50
:102754003AF54FA57F520E518C68059BABD9831F68
:102764000A4A0B4993680968D867C3F88010094975
:102774004B6843F080534B60002383F31188BFF30D
:102784006F8F9368D3F88000704700BFC85E022043
:1027940094F4010000ED00E043B2002B08DB0122B9
:1027A40000F01F0002FA00F0024A5B0942F823001D
:1027B400704700BF00E100E0054B420953F82220B6
:1027C400012300F01F0003FA00F01040704700BF1F
:1027D40000E100E043B2002B01F10101ACBF03F1C1
:1027E4006043064B4FEA4111C9B2ABBF03F56143E5
:1027F40000F00F0083F800131954704714ED00E043
:1028040042F8203C009B0B4942F81C3C019B21F000
:10281400010142F8183C029B42F8081C42F8143C9F
:102824004FF0807342F8043C0023203A8265C3676A
:10283400704700BFB11A0100044608B50E4615469C
:1028440000F000FA084B9C60E36E83F30B88284683
:1028540086F30988002163B681F31188BFF36F8F73
:10286400002200230FF022F9C85E02200E4A08B5A8
:102874000E4B22F07F029A60BFF34F8FBFF36F8F2E
:10288400D3F8882022F47002C3F88820EFF314836D
:1028940023F0040383F314880DF0FEFB0EF020FCF8
:1028A40000F0A2F90DF01CFC0000000000ED00E0B7
:1028B40013498A684FF038001044EFF3098C80E81C
:1028C400F01F202080F31188BFF36F8F0D4F4FF05E
:1028D40000668A6A8A603E60D06F0023D36780F303
:1028E400118802F1380090E8F01F8CF3098802F196
:1028F400000004B510F025FBBDE80440704700005B
:10290400C85E022004ED00E01EF0040F0CBFEFF3DC
:102914000880EFF30980816911F8021C0229FFD0B5
:1029240001B510F014FB01BD014910220A60704783
:1029340010ED00E072B6404080F31188BFF36F8F52
:10294400BFF34F8F30BF62B6BFF36F8F704700BFC6
:1029540072B6494081F3118820BF80F3118862B6B2
:10296400704700BF30BFFFF7FDBF00BF01B572B6AF
:102974000B4A506A00281EBF002151621AF0E9FA7E
:1029840062B6EFF30580A0F110004FEAC0000549DC
:10299400014409C99847BDE80140034908470000BC
:1029A400C85E0220C8DA0100F52900000FF050FBD0
:1029B400202080F3118808484FF40061401880F308
:1029C4000988EFF314800221084380F31488BFF3CD
:1029D4006F8FFFF74BFF0000F0D20220EFF3088067
:1029E400EFF3098101B5724600F064F801BD00BF40
:1029F400044B9968986A884203D003494FF0805287
:102A04000A607047C85E022004ED00E00E4B9A6A2B
:102A14009A6A9A6A920708D55A6B9A6A120604D57A
:102A240018B19A6A22F080029A620020064B9A6AD0
:102A34009A6A9A6AD20658BF9A6A9A6A42F0FF0260
:102A44009A620870704700BF00ED00E00D4B9A6A6F
:102A54009A6A9A6A920508D59A6B9A6A120404D5FE
:102A640018B19A6A22F400429A620020054B9A6ACD
:102A74009A6AD20558BF9A6A9A6A42F47F429A6265
:102A84000870704700ED00E0094B9A6A9A6A986AE8
:102A94009A6A9A6A9A6A9A6A9A6A10F480106FEA31
:102AA40002426FEA124218BF02209A62704700BFC6
:102AB40000ED00E0F0B5394B0C465B6800258BB0A7
:102AC400C3F3080385F31188BFF36F8F02F07F41CE
:102AD400B1F17F4F11D102F00C0108290DD011077B
:102AE40001D4044601250022033B8DF80720032B63
:102AF4004DD8DFE803F0044448412C46F3E7274B64
:102B0400DA6A920743D4DB6A13F0804308D0244B7B
:102B14001B781BB301200DF10701FFF777FF034674
:102B24009DF80720C2B902AE04F12007324620689E
:102B34006168083403C2BC421646F7D1099A45B30A
:102B4400C2F3080121B96FEA52226FEA42220992C4
:102B5400184602A910F0F9F90BB0F0BD114B1B781F
:102B64002BB101200DF10701FFF770FFD7E70E4BE2
:102B7400188883B2002BD3D0FFF786FFCFE700205D
:102B84000DF10701C9E700200DF10701ECE700236F
:102B9400C6E722F4FF7222F00102D8E700ED00E05C
:102BA40028ED00E029ED00E02AED00E0044B5A692D
:102BB40042F010025A615A6942F480625A617047C5
:102BC40000ED00E0BFF34F8F0549064BCA6802F4DD
:102BD400E0621343CB60BFF34F8F00BFFDE700BF3C
:102BE40000ED00E00400FA05002320210348C21888
:102BF4000133452B82F80013F9D1704700E100E05E
:102C040008B50E4B9B68834207D1EFF3058393B15C
:102C14000B4A536843F0805353600DF0E3FE4FF0CA
:102C24002003EFF3118083F31188BFF36F8FBDE8A6
:102C340008401AF015BB0EF0CDF900BFC85E0220A3
:102C440000ED00E01FB5094C094A2346012109485B
:102C540000F002F900230393074B0121E41A01A8B1
:102C64000193029400F002F904B010BD00000720A3
:102C740000000020B8EC0100B009002010B50B687A
:102C84000C7A23F01F0204F01F031A43CB68640973
:102C940023F01F03044943EA440343F0010388601B
:102CA400CA600B6110BD00BF90ED00E02DE9F04F4C
:102CB4008846144606464FF000094A4D85B0C14582
:102CC40005DA7768BFB31F2F05D86FF015042046C7
:102CD40005B0BDE8F08FFB06F7D1D6F800A01AF0D6
:102CE4001F0FF2D1504610F05AF9834607EB0A0041
:102CF400013810F054F98345E7D11BF1160FE4D0E5
:102D0400631E5B45E1DBC5F808B0E968C5F808B0A7
:102D14002F6921F01F01D6E900321A44994247F085
:102D24001F0702F1FF3A1CD1574508D131465FFA1B
:102D34008BF010F017F909F101090C36BFE73146A1
:102D4400C5F808B0EB6822F01F0203F01F031A4312
:102D5400EA60E0B210F006F910F1160FB5D0441C89
:102D6400E9E7013B5745E0B223F01F03C5F808B07B
:102D740006D12A69314602F01F0213432B61E9E7A9
:102D8400296901F01F010B432B61314610F0EAF869
:102D940010F1160F99D0C5F808B0EA689DF808300C
:102DA400013F62F304038DF808302B699DF8082075
:102DB4005B0863F347128DF80820D6E90032134408
:102DC400009323F01F033B44441CA3EB0A0AE0B224
:102DD4002AF01F03072803933FF677AF6946FFF7EE
:102DE4004DFFBCE790ED00E00522034B5A60BFF3B2
:102DF4004F8FBFF36F8F704790ED00E0BFF35F8F8D
:102E04000022014B5A60704790ED00E038B50E4C3B
:102E14002568082D14D8FFF7F1FF00200B4B0C4A4E
:102E24001A63854205D10B4B1D70FFF7DDFF0020AF
:102E340038BD616801EB0011FFF720FF0130F0E7B6
:102E44004FF0FF30F4E700BFC4EC010090ED00E068
:102E5400AAFF44003C9F022010B5034C2278FFF7E0
:102E640025FF207010BD00BF3C9F02202DE9F74FC5
:102E7400264D8A4606464FF00008AB46244FD045FF
:102E84001BDAD6F80490B9F1000F39D0316808463E
:102E9400019110F084F80199044609EB010001380E
:102EA40010F07DF884424FF014021A4B08D06FF0F2
:102EB400150302FB08F84BF8083003B0BDE8F08FA7
:102EC40014F1160F2C60F8D01978A142F5DD02FB3D
:102ED40008B0BC60BC60FC6800F10801007B64F3CE
:102EE4000400087138690C79400860F347140C71C8
:102EF400F96821F01F016960396921F01F01296116
:102F040008F1010814350C36B9E700BF141A002083
:102F140090ED00E03C9F0220014B1860704700BF19
:102F24000003002070B50D4688B004AE00220023D3
:102F3400314624480DF03AFA234C00282FD196E864
:102F44000F0084E80F0009F00DFBC06A694683682E
:102F5400DB6998479DF80D60B4F90030B4F90200BC
:102F6400BDF80020BDF8021016F0FD0F07BF101ABF
:102F7400CB1A081AD31A0CBF208020801BB2012E52
:102F8400638005D1B4F900202380891A618006E0AA
:102F9400022E0FD12088CB1A121A2280638094E863
:102FA4000F0085E80F00074B186A003818BF01208E
:102FB40008B070BD032EF2D1D31AB4F900102380E7
:102FC400E4E700BF300800204C5A02201FB500205F
:102FD400ADF800200390CDE90100ADF802108DF8A2
:102FE4000E3000220023694602480DF08BF905B02B
:102FF4005DF804FB3008002030B595B02E480CF085
:10300400F3FF044600284ED006F038F908A809F06A
:103014008DFAA368204613946946DB699847BDF886
:1030240000302648B3F5A07F98BFADF82030BDF836
:1030340002308CBF6FF085040024F02B8CBF6FF03E
:103044008504ADF8223000224FF440431C49099016
:1030540017F024FD24BB08A800F03AF8044628BB66
:1030640008A809F0E1FA20B316480CF0BDFF0546A4
:10307400B0B1836814491B689847002810DB684680
:1030840009F03EFB01238DF80030104B6846019394
:1030940009F046FB20B1AB689B680BB12846984702
:1030A400204615B030BD6FF01204F9E76FF08504C7
:1030B400F6E74FF0FF34F3E7CD6C0200285A022004
:1030C400281A0020AD3D0400D12F0000292F000054
:1030D4001FB50446C06A69468368DB6998479DF852
:1030E4000C30082B0AD86BB1013B0022072B09D8FE
:1030F400DFE803F0162308230808080F102B15D067
:10310400202B13D000236FF08500C4E903336361DF
:1031140004E00D4B6261C4E90332002004B010BD29
:103124000A4BC4E903320A4B6361F6E70020094BFA
:103134002061E360084B6361F0E7084BE360084BF0
:103144002361084BF0E700BF4F3201007B310100DF
:10315400C93101000931010055310100C12F0100BD
:10316400D13001003B3001004FF08053094A002068
:10317400C2F80432C2F8003242F8D43C42F8D83CD7
:103184001022054BC3F840244FF05023C3F8140613
:10319400704700BF0028845000300050F0B50B4643
:1031A40001780246012915D002292BD089B91D4680
:1031B4001B4C04F110072E4620686168083403C6CE
:1031C400BC423546F7D15288217831705A73120ABD
:1031D4009A73F0BD1D46124C04F110072E46206868
:1031E4006168083403C6BC423546F7D15268217879
:1031F4003170C2F307215A73120CDA73120A9973ED
:103204001A74E6E700F110051C461068516808328C
:1032140003C4AA422346F7D112782270D9E700BF2B
:10322400C33D0400012838B505460CBF06480748CD
:1032340011F07CFD044620B10121083011F095FD08
:103244002575204638BD00BF60090020980800207D
:1032540002460B4670B54FF02001EFF3118581F360
:103264001188BFF36F8F00200B49D1F8F840C1F8E3
:10327400F80085F31188BFF36F8F24B9BDE870405F
:103284000120FFF7CFBF0121A081217504F10800BF
:1032940011F06BFD204670BD0000002070B504469F
:1032A4000F2C0D461046194605D80D2C12D9BDE831
:1032B4007040FFF7CDBF132C0CD10B4811F036FD35
:1032C400044628B10121083011F04FFD0123237574
:1032D400204670BD02460B460DB10448EEE70120BE
:1032E400BDE87040FFF79EBF88090020E808002071
:1032F400F8B506460025094FFB79ECB2A34202D883
:103304006FF0010408E0C4EBC4013046394410F006
:1033140060F801350028EFD12046F8BD00000020F8
:10332400436837B50446580502D5002003B030BDC4
:1033340022690AB1D907F8D51A4D2078EB7983426E
:10334400F3D90023C0EBC000694628440093CDF8AC
:10335400033010F03EF80028E7D06068C20706D4B6
:1033640095F83430082B02D8A3689F2BDDD910F0D0
:10337400300F02D02369002BD7D0C30601D42369B0
:1033840043B9D4E902239A42CFD81F2ACDD9B3F541
:10339400804FCAD800F46030B0F5603018BF012007
:1033A400C4E700BF0000002010B501210446083026
:1033B40011F043FD2146BDE810400723014A00787F
:1033C4000FF0E0BF2CED010013B50C4C01460522B3
:1033D40094F8330001F010FE70B9094B694618687F
:1033E4009A889B790090ADF8042094F83300042265
:1033F4008DF8063001F000FE02B010BD0000002080
:1034040080DD010030B5134DC0EBC0000C4685B023
:10341400054471B10023694620460093CDF803307A
:103424000FF0D7FF28B12146284610F073F805B0F5
:1034340030BD02A80FF086FF02A8FFF759FF00284D
:10344400F7DA284602A910F065F8002CEFD02946D7
:103454002046EAE7000000202DE9F8433B4FDFF85F
:1034640000813B4E4FF0FF334FF0FF32384611F0EE
:1034740062FC037D0446012B39D0032B20D18389C0
:10348400032B0CD840F2AC433246324932480EF09A
:1034940055FA404080F311884FF0030002DF042105
:1034A40004F1080011F0C9FCFF224388B0F8009031
:1034B4006275A289C9F30B009A42E08203D02046C8
:1034C40003F044FA10E001F0C3FC05460028F6D0EE
:1034D40001F0DCFE214660754FEA1932284610F0EF
:1034E40055FA284610F0CDFA0DF0DCFBBAE78389D3
:1034F400012B0CD841F2FB333246164916480EF024
:103504001DFA404080F311884FF0030002DF0221CE
:1035140004F1080011F091FC054600780FF020FF3B
:1035240083070CD441F2FF3332460C490A480EF0AB
:1035340005FA404080F311884FF0030002DF0423B2
:103544004246214628780FF01DFFB8E7FC00002012
:10355400D43D0400083E0400213E04003E3E040025
:1035640074ED01002DE9F0470025A8468768DFF8CF
:10357400C4903B789D4201DBBDE8F08707EB8503EF
:10358400B3F80100B3F8036001F062FC044650B3E1
:1035940000F1280A26B34FF02003EFF3118283F3DE
:1035A4001188BFF36F8FE3696BB1013BE36182F371
:1035B4001188BFF36F8F204601F022FB013E0DF00E
:1035C400E7FBB6B2E6E763692BB1A16918688B42E1
:1035D400606108BFA06182F31188BFF36F8F23B9C4
:1035E400204610F04EFA0135C3E74FF02002EFF306
:1035F400118182F31188BFF36F8FDA68E261C3F837
:103604000080626AC3F80C808AB9C4E9083381F384
:103614001188BFF36F8F012104F130000FF010FF08
:10362400C307C8D45146484619F0A0FDC3E7136048
:103634006362ECE768110020F8B5064688790C4609
:1036440003F0C8F8194B83422ED1204603F0CAF880
:10365400204603F0C7F80C27154D07FB00535B68A1
:103664005BB156B9204603F0BDF807FB0050436830
:103674001A7AD3E900010FF0F9FE204603F0B2F8FC
:103684000C2707FB0050836873B1204603F0AAF8A7
:1036940078432E54204603F0A5F807FB0055A8688C
:1036A400BDE8F8400DF074BBF8BD00BF3809002038
:1036B4005C5A022038B503210446083011F0BDFBE2
:1036C400A368057821461878FFF7B6FF25B1BDE851
:1036D400384002480DF05CBB38BD00BFE00000205C
:1036E400F0B5284B05460F4685B0017803F1280054
:1036F4000FF06CFE10F0400F1A4608D003F12800BA
:103704000FF064FEC00502D51B7E8B4231D12E46DC
:1037140016F8093B694682F833300023304600939B
:10372400CDF803300FF055FE0446287864B13146D5
:1037340010F0D7F90446F8B92878314601F05AFB5D
:103744000546E0B105210EE06FF0FF0302934FF64A
:10375400FF7302A9ADF80C308DF80E3001F04AFB6E
:10376400054660B1042101F07FFB3D60204605B0B1
:10377400F0BD6FF08504F9E76FF01504F6E76FF01C
:103784000B04F3E70000002038B504210446083098
:1037940011F053FB457821460078FFF74DFF25B122
:1037A400BDE8384001480DF0F3BA38BDE000002010
:1037B4002DE9F84F4FF0FF324FF0FF33054616481E
:1037C4000E4611F0B3FA0027044600F1080B01215C
:1037D400584611F0CAFA2046277503F003F84FF053
:1037E4000C0ADFF838800AFB00804580204602F08E
:1037F400F9FF0AFB00808760204602F0F3FF0AFB12
:10380400008003214760584611F0E6FA867005806F
:103814002046BDE8F88F00BF380900205C5A02201A
:10382400F0B515460C4687B021B9FFF7C1FF044631
:10383400002848D001220021684619F0E3FD204603
:1038440002F0D0FF0C23214E03FB0060C0F808D027
:10385400204611F09BFA21461D4811F08AFA4FF4D4
:10386400A022002368460DF0B9FA074680B140F261
:103874004D13184A184919480EF060F8394618488B
:103884000EF05CF8404080F311884FF0030002DF33
:10389400204602F0A7FF0C234343F65C56B12046B2
:1038A40003F054F8092E0CBF6FF06E006FF00400A3
:1038B40007B0F0BD15B130462C60F9E7204603F09F
:1038C40045F82846F4E76FF06800F1E75C5A0220F7
:1038D40014010020D43D04006C3E0400213E040089
:1038E400753E040070B5154E062206F12D010546FD
:1038F4001AF027F80246D8B1062142F20500FFF774
:1039040057FF0446B0B106222946083011F06AFA7E
:103914000022214642F20500FFF782FF024638B931
:10392400294606F12D000FF0F0FD012386F82C3016
:10393400104670BD6FF06802FAE700BF0000002077
:103944002DE9F743044611F001000E4690461D464A
:1039540027D0274F2AB1880603D597F898305906FF
:1039640042D5C4EBC403FB5C4FEAC409012B08D065
:10397400A9EB04043B5DB8F1000F0DD100202B70BE
:1039840007E0072010FB04303844FFF7ABFF0028A2
:10399400EED003B0BDE8F083B20648BF43F00203A3
:1039A400ECE74B0710D5124EC4EBC403F35CE700FD
:1039B400012B05D1072010FB04303044FFF792FFA0
:1039C4003C1B335D2B70E4E70621684601F056F892
:1039D40040B99DF80530684603F03F038DF8053083
:1039E400FFF780FF0123EDE76FF08500D1E700BF0B
:1039F400000000202DE9F04F87B09DF8488006466E
:103A04000C4617460021102202A81D46DDF84090FE
:103A14009DF844A019F0B0FFB8F1000F0ED0B4BB6C
:103A2400002D3FD1DFF8B0B05846FCF719FD09234B
:103A34008DF801008DF80030CDF804B0CDE90247CF
:103A4400B8F1000F30D0BAF1000F2DD101230222BA
:103A5400CDF810D0059342F2080002A90FF07AFDC8
:103A6400044638B9BAF1000F20D1042106F1100040
:103A74000FF0E6FC204607B0BDE8F08F14F83320C1
:103A8400083A012A25D901339F42F7D1C8E7002318
:103A9400FAE715F83320083A012A1AD9013399456F
:103AA400F7D1BFE70023FAE70122D4E70122CDE9E9
:103AB4000259B8F1000F03D005920222CDF810D0BC
:103AC40042F2090002A90FF045FD0028CDD00446BA
:103AD400D0E76FF01504CDE7BAF501007FB50646CF
:103AE4000D4642F20A000121FFF762FE0446E8B1E6
:103AF4000830CDB1012111F07FF90623204610369C
:103B0400029301968DF80C5002F06CFE0C22094BC6
:103B1400214602FB003001AB4360002242F20A005E
:103B2400FFF77EFE04B070BD2946E4E76FF068003D
:103B3400F8E700BF5C5A0220024BD3F82C311B6912
:103B4400184700BF0000002038B505460C4619B9D7
:103B5400FFF72EFE044698B140F635439D4209D145
:103B64002046FFF7E9FF054610B1204602F0EEFEBD
:103B7400284638BD2146044811F0FBF80025F7E734
:103B84006FF06805F4E700BF14010020F8B504469F
:103B9400C58A807902F01EFE214619F0F2FA1B4B09
:103BA40093F84E309B0614D5607D01F07BFB0346F1
:103BB40078B1827A012A02D0073A012A0AD8184633
:103BC4000FF05FFF052140F63540FFF7F1FD044695
:103BD40020B9F8BDBDE8F8400FF053BF00F1080765
:103BE4000121384611F0F8F8012604210670384600
:103BF40011F0F2F8002305808670C3702146BDE8F9
:103C0400F84040F63540FFF79FBF00BF000000209A
:103C14007FB5837A0446072B1ED1061D30460FF06C
:103C2400D5FB83041AD4E37823B1254B93F8983059
:103C34001D0713D5022142F21600FFF7B9FD054610
:103C440060B10221083011F0C7F8238829460380A7
:103C540042F21600FFF778FF04B070BD30460FF053
:103C6400B5FB10F4805F164DC0F300310FD195F809
:103C74009930D8070BD5022320461A4600910FF03D
:103C840022FD20B9802130460FF0DAFBE4E795F8F5
:103C940098309A06E0D5D5F82C319B689B07DBD584
:103CA4000DF10E0103A80FF03DFC0028D4D12046ED
:103CB400BDF80E20BDF80C100FF0E8FCCCE700BFF7
:103CC400000000202DE9F84FDFF80481DFF814A18B
:103CD400D8F80C303D486FF31033C8F80C3001F0BD
:103CE40051F8451C4FF0FF324FF0FF332946384856
:103CF4000DF0F4FB60B141F2714352463549364848
:103D04000DF01CFE404080F311884FF0030002DFE9
:103D1400DFF8D4902E4EA9F58A77A9F1340B15B9A2
:103D24000CF0C0FFD4E7F368C3F30433042B42D18F
:103D3400337B002B42D100220023484610F0FBFFC6
:103D4400044660B941F20E435246244922480DF01C
:103D5400F5FD404080F311884FF0030002DF4FF07F
:103D6400FF324FF0FF3358460DF038F8D7F8F8001B
:103D740020B102F0EBFD0023C7F8F830204611F023
:103D840005F8C7F8F8002046FFF7D6FE98B11448A6
:103D94000CF0FEFF204602F025FD21461F20FFF710
:103DA4004BFCD7F8F80002F0D1FD00232046C7F8F9
:103DB400F83002F0CBFD1436013DB0E7012BFAD107
:103DC4003069343801F0FEF9F5E700BF180300202C
:103DD400040300206C3E0400213E0400953E0400D0
:103DE400E0000020D43D0400140100202DE9F0413E
:103DF400044600F10806304611F02FF8B4F80C80A0
:103E04000546B8F1010F0CD841F6AE031B4A1C4914
:103E14001C480DF093FD404080F311884FF00300DF
:103E240002DF0221304611F008F8074600780FF04F
:103E340097FAC20706460CD441F6B2030F4A124958
:103E440010480DF07BFD404080F311884FF00300D3
:103E540002DF052321460D4A38780FF093FAB307A1
:103E640007D52069A4F80C8010FA85F5A560BDE893
:103E7400F0812046BDE8F04102F068BDD43D040065
:103E8400083E0400213E0400993E040094ED010024
:103E940038B5037D0546012B07D0032B13D10C48FD
:103EA400294610F066FF00200CE0836818780FF0B4
:103EB40057FAC307044602D52846FFF797FF14F0C4
:103EC4000200ECD138BD02F041FD6FF01500F9E7B6
:103ED400FC000020084A0346D2F82C0130B9D96806
:103EE40039B1196929B1C2F82C3170476FF07700E4
:103EF40070476FF015007047000000200221014850
:103F04000FF09EBA9400002000487047BAF50100F3
:103F140037B50C46054618B9ECB16FF0150417E037
:103F2400002369460093CDF803300FF052FA0028BD
:103F3400F2D02B78012BF0D1AB7903F0C003C02B66
:103F4400EBD12846FFF7D4F90028E5DB6FF07704BE
:103F5400204603B030BD074BDC79012C06D0621C2F
:103F640029462046DA71FFF74DFAF1E76FF00B04AA
:103F7400EEE700BF0000002070B586B0002141F2DA
:103F8400090001AAFFF74CFC1A4E044618B100239D
:103F9400F37106B070BD019B06229D6804A901352A
:103FA4000490ADF81400284619F0CBFC18B9019818
:103FB40002F0CCFCEBE7104B062218689B880290B9
:103FC40002A92846ADF80C3019F0BBFC0028EED04D
:103FD40029460DF111000FF098FA01988DF8104060
:103FE40002F0B4FC0123204604A9F371FFF70AFA96
:103FF400CFE700BF0000002087DD0100F7B5184BB4
:10400400054693F886400E4614F0010415D00021AD
:104014004FF6094001AAFFF703FC0346E8B90198EB
:104024004FF0160C8268547802EB0C07B44228BF98
:104034003446A34204DB02F089FC204603B0F0BD01
:104044000CFB0351961C56F804EBBE4241F804EBFA
:10405400F9D13E8801330E80EBE70024EDE700BF81
:104064000000002070B5134D88B0EC79ECB9012143
:1040740002A8FFF7C3FFE871B8B116260EE002AB41
:1040840006FB02310DF101000FF03FFA01236946EE
:1040940010468DF80030FFF7B5F90134EB79E2B240
:1040A4009342ECD8002008B070BD00210846FFF709
:1040B4002FFFF8E700000020F7B55C4DD5F82C3150
:1040C400996811F001011CD140F6034001AAFFF7E1
:1040D400A7FB0446002840F0A680019B9B681B7840
:1040E40063B905F1940318460FF070F900F0050068
:1040F400D3E8EF2FC3E8E10F0029F9D1019802F0CA
:1041040025FC002141F2030001AAFFF789FB0446C4
:10411400002840F08880019A454E936853F8010FB7
:10412400596803C6104602F011FC214641F2010011
:1041340001AAFFF775FB0446002874D1019883682F
:104144005A7885F83420D9789A7842EA0122EA86A6
:104154001A7985F83520197ADA7942EA01222A8710
:104164005A799B7942EA03236B8702F0EFFB2146DD
:1041740041F2020001AAFFF753FB0446002852D182
:10418400019FBA68531C4132344618685968083391
:1041940003C493422646F7D1384602F0D7FB00F019
:1041A40045FC044600283ED195F84E309F0606D4BF
:1041B40095F840305E063DD46FF0120433E00721D9
:1041C40040F63340FFF7F4FA064610B96FF068047E
:1041D40029E00721083010F0FFFD1B23037006239C
:1041E400C0F802408471447004712246C3703146A1
:1041F40040F63340FFF714FB0446A0B9012140F612
:104204003140FFF7D5FA06460028DFD001210830F7
:1042140010F0F2FD2246314640F63140FFF700FB34
:1042240004460028C4D0204603B0F0BD000000209E
:104234003C000020002142F2030001AAFFF7F0FA3B
:1042440004460028EFD1019A9D4E936853F8010F5C
:10425400596803C6104602F079FB214642F2020077
:1042640001AAFFF7DDFA04460028DCD1019B9B6814
:10427400B3F8012091B2A5F8C42029B1DA78114627
:1042840006F1280019F0BEF8019802F05FFB95F8DA
:10429400406016F0200600F0F88095F860301C07A6
:1042A40011D5002142F21C0001AAFFF7B9FA044615
:1042B4000028B8D10198836853F8012F5B68C5E9D9
:1042C400282302F043FB95F89830980623D56846D6
:1042D4000DF102010FF026F904460028A3D10421B0
:1042E40042F22400FFF764FA064600283FF46EAF5A
:1042F4000421083010F070FDBDF800302246038020
:10430400BDF802303146438042F22400FFF788FAB8
:104314000446002887D1082142F20100FFF748FA39
:10432400044600283FF452AF0821084410F054FD1D
:1043340095F8982012F0020F14BF2F230F23910633
:1043440095F8992048BF43F0400312F0090F4FF04D
:10435400000218BF43F400630370C3F3072321462C
:1043640043708270C270027142718271C27142F2F2
:104374000100FFF755FA044600287FF454AF95F87E
:1043840040309A061ED4B5F8C410D9B941F20500DC
:1043940001AAFFF745FA044600287FF444AFB5F8B4
:1043A400C43063B9019B9B685A78997842EA012228
:1043B400A5F8C4209A884348114619F023F80198B7
:1043C40002F0C4FA082140F60140FFF7F1F904466F
:1043D40000283FF4FBAE0821084410F0FDFC102334
:1043E40003708823437002230022C37020232146D4
:1043F4008270027142718271C37140F60140FFF70D
:104404000FFA044600287FF40EAF014601AA4FF6C6
:104414000140FFF705FA18BB019802F097FA21460C
:104424004FF6024001AAFFF7FBF9C8B90198836867
:10443400B3F80130A5F8853002F088FA95F8853094
:104444005B070DD521464FF6034001AAFFF7E8F9B3
:1044540030B9019883685B7885F8843002F076FA85
:10446400EB79002B7FF4DFAEFFF786FDEB79002BB1
:104474007FF4D9AEFFF7F6FD044600287FF4D3AEEF
:104484001148FFF72FFA0446CDE6022140F66D40AD
:10449400FFF78EF9044600283FF498AE0221083055
:1044A40010F09AFC0123214603704670324640F610
:1044B4006D40FFF7B5F9044600283FF4EEAEB2E6CE
:1044C40098000020C8000020010000202DE970435E
:1044D400324D0646D5F82C3188B0002B57D0012137
:1044E40005F194000EF0ACFF10F0010452D12C4BF6
:1044F4004FF000084FF000091E606FF008034FF4FE
:104504008062CDE90243CDE90689CDE90044254B1B
:104514002549049425480CF0D3FC2549234818F078
:104524008BFF6FF007034FF48062CDE90243CDE9BE
:104534000689CDE900441F4B1F4904941F480CF021
:10454400BFFC1F491D4818F077FFD5F82C31DB68F4
:104554009847044650B96EB9FFF7AEFD044628B932
:1045640000F0A8FE044608B9FFF7C8FC204608B0CE
:10457400BDE87083012105F190000EF061FFC307CF
:10458400F4D4104805F1880118F0F0FDEEE76FF05F
:104594001204EBE76FF07704E8E700BF00000020A7
:1045A400745A0220C93C000080BC0220900B0020F9
:1045B400B23E04005D34000080B80220080B0020E5
:1045C400B83E04006811002010B5FFF775FD0446DD
:1045D40028B900F06FFE044608B9FFF78FFC044BBE
:1045E4001B681BB12046BDE81040184710BD00BF32
:1045F400745A02202DE9F04F9A4600230D698DB0BC
:10460400B5EB030B06467D4818BF4FF0010B0C4673
:10461400914605930EF0DAFE870740F1E1800846E3
:10462400FEF77EFE0746002800F0DD8006F1100844
:1046340040460EF0CBFEC0F38011400600F1D68058
:10464400A3686068ADF82030E368CDE90911ADF8DE
:1046540022308DF82C100EF0AAFE327823788DF8D3
:104664002D009A428DF82E1004D06FF480516348C7
:104674000EF0F1FE2078624B307083F833005A4616
:1046840061680DF12503FFF75BF98346002866D1C5
:1046940006F10900002D3FD021690EF03BFF606850
:1046A400C10741D5002D3CD010F0100F14BF0423D6
:1046B400012321690DF126008DF824300EF02AFF24
:1046C4000F2142F20600FFF773F88346002800F03A
:1046D40090800F2208A9083010F084FB002259466C
:1046E40042F20600FFF79CF8002840F0858035B3BD
:1046F4006368DA0737D401213046FFF7EFF98346C0
:104704000598BBF1000F65D048B3002100F0ACFB65
:1047140005980FF0B6F922E0069506A9CDF81B50CE
:10472400BBE78DF82450CBE7169B33B9C0F3C00721
:10473400C7F103038DF82430C2E70127F8E7636863
:104744005246C3F3C003CDE90173179B4946009356
:104754003046169BFFF74EF983460028C8D05846CA
:104764000DB0BDE8F08F304605A9FEF7B9FF8346CA
:104774000028C0D010F10C0FF1D1002DEFD16368E7
:104784009B07ECD4606880F00200C0F3400B0BF090
:1047940001020C2140460EF069FE62680721404682
:1047A400C2F3C0020EF062FE62680821404602F0C5
:1047B40001020EF05BFE3A46092140460EF056FE19
:1047C40062680B214046C2F380020EF04FFE4FF0A8
:1047D400000BC4E708B10FF054F9002DD7D1D1E78D
:1047E4006FF00A0BBBE76FF0150BB8E76FF0770BB0
:1047F400B5E76FF0680BB2E78346B0E7940000209A
:104804000000002013B5049CCDE9003413460A4689
:1048140001460248FFF7EEFE02B010BD180000206A
:1048240013B518480EF0D2FDC10429D515480EF071
:10483400CDFD4206C0F3801422D412480EF0C6FD0A
:10484400C3051DD5104801A9FEF74AFFC0B90121CF
:104854000D48FFF743F950B12146019800F004FBDD
:104864006FF4805107480EF0F6FDC0F30034019850
:104874000FF007F924B14FF4805102480EF0E0FD27
:1048840002B010BD2800002018000020F0B5057803
:10489400044685B09DB13C2D3FD16FF040014248A4
:1048A4000EF0D9FD0020FEF78FFD0446A8B3457233
:1048B400002100F0D9FA20460FF0E3F82DE0037947
:1048C400B0F80160023B012B00F10401B7B202A869
:1048D40025D80EF01FFE9DF8083004F11101023BAB
:1048E4000DF101008DF808300EF00FFE01238DF854
:1048F4000030E378012B0CD102A8FEF765FDE378C4
:104904000546012B04D16FF0400127480EF0A3FDAA
:104914005DB91F2138460EF07EFE05B0F0BD0EF0E5
:10492400F9FD68460EF0F6FDE3E7284602A920F8F3
:10493400886B0EF0EFFD227EE37D43EA0223A5F8A7
:104944009E30A27E637E43EA0223A5F8A430E37E70
:10495400227F43EA0223A5F8A630E3780024012B42
:10496400EB706C7216D1694605F18F000EF0D2FD22
:10497400297A0E4AC1EBC101114405F196000EF0EB
:10498400C9FDD2F8A410224601F04003134301D01C
:10499400FFF746FF0721284600F066FA2846FFF78E
:1049A40037F9284688E700BF2800002000000020CF
:1049B4002DE9704800258DB0002142F2180002AAAA
:1049C400FEF72EFF044658BB029804AE826806EB3D
:1049D400C50152F8013F46F83530536801354B6044
:1049E40001F0B4FF042DE7D118F0DBFD4FF47A7524
:1049F400A0FB05BC05FB01CC4FEADB3242EA4C428A
:104A04004FEADC33CDE90223082320220093314608
:104A140005486B440EF031FA002808BF6FF0040417
:104A240020460DB0BDE87088180C002013B5114B5A
:104A340093F95F30002B16DA002142F2180001AA24
:104A4400FEF7EEFE68B9019B082299680A48013115
:104A54000EF0F3F90446019801F078FF34B1FFF742
:104A6400A7FF02B010BD6FF08500FAE76FF00400F5
:104A7400F7E700BF00000020180C002038B50A4AF0
:104A840004460D460EF012FA431C07D1FFF790FFBF
:104A940048B929462046044A0EF008FA012814BFF2
:104AA4006FF00400002038BD180C002000230146DC
:104AB400C0E90133C360014818F058BB80080020E6
:104AC40038B50446084B1D68617A2DB951B92046A2
:104AD400BDE8384001F016BE2B680BB1204698475C
:104AE4002D69F1E738BD00BF785A02202DE9F8435B
:104AF40004460E4690461F464D694FF0FF334FF073
:104B0400FF323E480CF06AF9A37A072B46D14FF0E6
:104B14002003EFF3118283F31188BFF36F8F002D0D
:104B24004ED000232B60A369002B46D1C4E9055560
:104B340082F31188BFF36F8F042106F1080010F08F
:104B440063F9238808F0FD0843EA0838B389A0F81C
:104B54000080043B4380022330463375FEF7ECFFAC
:104B6400002849D04FF02003EFF3118183F311881B
:104B7400BFF36F8F002D39D00022636953B19D427A
:104B840031D12B684ABBA2696361954200D1A3610C
:104B940000232B6081F31188BFF36F8F17480CF04B
:104BA400F7F815B12846FFF781FF1FB1304601F031
:104BB400CDFE00273846BDE8F8831D60A561B7E740
:104BC400A36933B103F10C09DB680133C9F8003080
:104BD400AEE7E36904F11C09F7E71360A3699D429A
:104BE40008BFA261D4E71A461B68C7E7D9F80030AA
:104BF400013BC9F80030CDE70127DBE7C8000020FE
:104C040000487047C800002070B5031D0446D3E86F
:104C1400AF2F920515D5B0F89E20B0F8A0109142A0
:104C24000FD8B0F8A21091420BD3D0E929129142C7
:104C340007D1D3E8EF2F22F40072C3E8E12F002953
:104C4400F7D1084B1D6805B970BDEE683EB120462A
:104C5400B4F8A630B4F8A420B4F89E10B0472D6977
:104C6400F1E700BF785A0220F8B5074608460D461A
:104C74000EF0ECFC044610B900242046F8BD094BA4
:104C84001E68002EF9D0B3680BB93669F9E72946D6
:104C9400384698470028EFD028460EF0D7FC002865
:104CA400F3D1E9E7785A0220024B1A6818600261CE
:104CB400704700BF785A022070B5044600F13406EC
:104CC40000220023304610F036F8054658B9204635
:104CD4000EF053FE04F158010022BDE87040002399
:104CE40005480CF0B1B9686908B1FFF7DFFE284642
:104CF40001F02CFEE4E700BF681100202DE9F0412B
:104D04009846837A0646072B0D46174605D0084673
:104D140001F01CFE6FF07F0015E062B30CF032F876
:104D2400164B8342164807BF002200234FF0FF3280
:104D34004FF0FF330BF05AFC044630B9284601F01B
:104D440005FE6FF06800BDE8F081B37A072B06D04A
:104D5400284601F0FBFD2046FFF7A8FEDAE7002312
:104D6400C0E90178C360686106F13400294610F097
:104D740000F80020E7E74A61F6E700BF8011002051
:104D84008008002038B500220446174B01219A60A0
:104D940018F091FD154B04F1140003F1B802D2E8A8
:104DA400AF2F19460AB9012038BD9A7A7AB91A1D6B
:104DB400D2E8EF5F25F0400CC2E8EECFBEF1000F61
:104DC400F6D16A0603D51846FFF776FFEBE78B7A30
:104DD400072BE8D1064B0022042118F06CFD0123B7
:104DE400022084F82030DFE740030020500D00202B
:104DF400840D002070B506460D46114801210EF0C1
:104E040097FD0446D0B130220021583018F0B4FD8B
:104E14000C4B0D4AE3650023C4E90B23A3622672FD
:104E24002B68C4F88830AB88A4F88C30AB7984F84C
:104E34008E300123A370054BC4F8A030204670BD0A
:104E4400500D0020A15000002F3901001800280047
:104E54000246012108B503480EF021FE002838BFA0
:104E6400002008BD500D002070B5857A04468D429F
:104E740000F09D8081720DB90EF0EFFDA37A012B35
:104E840016D100264A4D4FF02003EFF3118283F32D
:104E94001188BFF36F8FE369002B69D0013BE36195
:104EA40082F31188BFF36F8F28460BF071FFEAE796
:104EB400072B09D0002B7AD1A378042B25D12046C7
:104EC400BDE870400EF0DDBDA378042B6FD004F173
:104ED400340018F03FF9002136480CF05BFB002346
:104EE4002046C4E9133300F013FA2046FFF7E8FD27
:104EF400E378012B5BD104F158014FF42032BDE873
:104F0400704000232C480CF09FB8013D052D4ED86D
:104F140001A353F825F000BF354F0000674F000090
:104F2400C34E0000C34E0000674F0000674F0000EF
:104F340020460EF0D7FCA378012B03D104F15800CE
:104F440018F0D6FA0434D4E8EF3F43F04003C4E841
:104F5400E23F002AF7D1BDE87040002115480CF06B
:104F640019BB637A002BAAD02046FFF7A9FDA6E758
:104F7400606928B1A16903688842636108BFA361BD
:104F840082F31188BFF36F8F88B14FF02002EFF3E3
:104F9400118382F31188BFF36F8FC268E261C66028
:104FA40083F31188BFF36F8FFFF780FD7CE770BD3B
:104FB400C8000020400300206811002070B5054699
:104FC4000C480E460EF049FD044628B18378012BA7
:104FD40004D00EF056FD0024204670BD294632460A
:104FE4000EF01BFD05460028F6D120460EF049FDC3
:104FF4002C46F1E7500D0020F8B505460F480E4643
:1050040017460EF02AFD0446B0B18378012B03D075
:105014000EF023FD00240FE046B1324629460EF07F
:10502400FCFC18B920460EF02CFDF3E7A37ABB4232
:10503400F8D1237AAB42F5D12046F8BD500D0020BB
:1050440038B5044608460D460EF000FB08B3124B73
:1050540093F89830990707D4E37873B1294620462A
:10506400BDE8384000F0AAB994F8AC309A07F3D5FB
:10507400231DD3E8AF3F5B05EED4294620460EF04E
:1050840038FD28B9AB88A4F8A830EB88A4F8AA3076
:1050940038BD6FF01500FBE70000002073B510F871
:1050A4004E3C0446A0F1580693B930460EF0A4FDD8
:1050B4001B4B1D6825B930460EF0E3FC02B070BDF1
:1050C4006B681BB1304614F84F1C98472D69F1E703
:1050D40010F8563C012BF1D1A0F15405D5E8EF3F6F
:1050E40023F40072C5E8E12F0029F7D19B0510D500
:1050F400A36C0093236D019369463046FFF7A0FF2C
:10510400D5E8EF3F43F48073C5E8E23F002AD5D0E9
:10511400F6E76B46034A1068516803C3ECE700BF27
:10512400785A022078DD010038B50D46064900287A
:1051340008BF08460FF0FAFD044618B1691D08308F
:105144000FF013FE204638BDC00800200146014878
:10515400FFF7EABF100900202DE9F04106464FF0A1
:10516400FF334FF0FF3200200C46FFF7EFFF337898
:105174000546072B4FF0000605D001F0E7FB354646
:105184002846BDE8F081466100F108070C4E384618
:10519400B6F8C4800FF065FE80450CD2B6F8C46042
:1051A40054F8081F324638460FF01CFE314620469C
:1051B4000FF03BFEE4E738460FF053FE86B2EFE70C
:1051C40000000020F8B5837A054673B9031DD3E8BF
:1051D400EF2F22F04001C3E8E41F002CF7D153065F
:1051E40003D5BDE8F840FFF767BD0022002305F1B1
:1051F40034000FF0A0FD044660B940F25F531F4A2B
:105204001F4920480CF09AFB404080F311884FF06E
:10521400030002DF1C4FA189B7F8C420914207D8CC
:105224000023022221462846FFF760FC40B1F8BD66
:1052340005F10A0621463046FFF78EFF014620B9E4
:105244002046BDE8F84001F081BB01230022284636
:10525400FFF74CFC0028F3D0A289B7F8C4309A4277
:1052640002D800230322DDE721463046FFF774FF0E
:1052740001460028E4D001231A46E8E7BE3E0400B4
:10528400953E0400213E040000000020034BC01A98
:10529400034B80115843C0B2704700BF500D00202B
:1052A400ABAAAAAA10B902480EF0D7BB00207047D7
:1052B400500D002010B50B490B4817F057FF0B4950
:1052C400094817F053FF0A49074817F04FFF0FF03A
:1052D40015F90FF028FD044608B90EF027FD204605
:1052E40010BD00BF7C5A0220800800208C5A022086
:1052F4009C5A0220044B186818B9044A5A600B607F
:1053040070476FF00B007047100E0020DCED0100B9
:105314002DE9F7430546264E264FDFF89C80BE4212
:1053240002D303B0BDE8F0832846736801A9984707
:10533400002838DB019C33883022A4F84830A4F8D4
:105344005430002104F11000D6F8089018F014FB32
:105354000022C4F8148004F14003D3E8EF1FC3E82B
:10536400E02F0028F9D1A2602A6D04F10803E2B904
:10537400C5E91333019825604368C4F80C901B6891
:1053840003B19847019B4033D3E8EF2F42F0010269
:10539400C3E8E12F0029F7D1019843689B6913B151
:1053A40000F1400198470C36B9E713602B65E1E73B
:1053B400F0DC010014DD0100E53B010073B5154B81
:1053C40005461A780C46013212F0FF0208BF01228A
:1053D4001A701220082219780EF0B4FB0646B0B1F8
:1053E400082108440FF0F8FC228805210280628815
:1053F4004280A2888280E2880024C280234632460A
:10540400284600940EF011FC204602B070BD6FF0E7
:105414000B00FAE73D9F0220024BC1F820310EF049
:10542400B3BC00BF79410100024BC1F820310EF03A
:10543400ABBC00BF65410100024BC1F820310EF046
:10544400A3BC00BF8556000007B50838019001A928
:1054540002480AF02BFF03B05DF804FB9407002018
:105464002DE9FF414FF000084FF4205306460D4646
:10547400006802A9144617688DF80880ADF80A3050
:105484000DF009FFA0B142F60103306803A98DF8BD
:105494000C80ADF80E300DF0FEFE48B123691BB14F
:1054A4005A88AA4200D25D80012004B0BDE8F08190
:1054B400616830680DF0EFFE10B100232361F3E75B
:1054C400E368A0681A783AB1B7F85E3081895B1A4C
:1054D400934201DA0020E8E7042108300FF07CFC55
:1054E400094B2061314605804580A2680093384607
:1054F400002301940EF098FC0028EBDB20690038AF
:1055040018BF0120D1E700BF6B4001002DE9F7432C
:10551400D2F8008006468946006851681446D8F8D7
:1055240008500DF0B8FE074600283ED12846152243
:1055340031460FF089FB0546207548B1E3681B78B6
:1055440023B90025284603B0BDE8F0832775F8E7A2
:10555400A0680FF01FFC022108300FF03DFC144B33
:1055640020613146A0F80090A268009340462B4683
:1055740001940EF059FC002807DA10F1FF0F32BF36
:105584000E204042C0B22075DCE72369002BD8D03E
:10559400A0680EF0F1FBB8F85E50E3682D1A187895
:1055A400854294BF00250125CCE70125CAE700BF49
:1055B400993D01002DE9F7438B6805461B780C469D
:1055C400D22B91460CD1036818680FF0A9FB06464C
:1055D40030B1204601F0BAF9304603B0BDE8F0839B
:1055E40004F108000FF039FCB4F80C800746B9F157
:1055F400000F0AD1A36818780EF0DEFB431EDBB25D
:10560400042B9CBF164A52F823902B682046C5F8F9
:1056140028911E680FF0BAFBD5F82811114B0246E9
:10562400994219D0104B994218D0DFF850C00F4B53
:105634000F48614518BF03460835304604210095DC
:105644000EF0F3FA06460028C3D02069A4F80C80B3
:1056540010FA87F7A760BFE7064BEDE7064BEBE7C9
:10566400FCED010065410100794101003D54000059
:105674008D3D01002D5400001D540000855600008E
:10568400D0F8C4303BB100F1E0014FF470220023A4
:1056940001480BF0D9BC704768110020F7B500230E
:1056A40007460E46002269461F480AF0CDFD04460F
:1056B40020B16FF00B04204603B0F0BD01462C224C
:1056C400009818F059F9009D0022C5E90074C5E955
:1056D4000944AC600023154801A901940AF0B4FD03
:1056E40004460028E5D101464FF49872019818F059
:1056F40043F901980E4BC360C83017F02BFD019895
:1057040000F588700322114617F07CFE019BC0331C
:10571400D3E8EF2FC3E8E14F0029F9D1019B43F807
:10572400085B3360C7E700BF7807002094070020B8
:105734005003002038B5074A04460D46FFF73AFFE8
:1057440030B1294604F1C800BDE838400FF011BB60
:1057540038BD00BF6541010038B504210446006826
:105764000EF0A9FA50F8085C6B6A1BB905F10C003D
:1057740017F0F0FC6A6A04F59273C4F82421AA6A4B
:105784006B6202B9AB6204F1B803D3E8AF3F1B0705
:1057940058BF17234FF030025CBFA4F85630A4F86A
:1057A4004A30002104F1D80018F0E6F8014BC4F89F
:1057B400DC3038BDA3450100F0B5044687B001F1E3
:1057C40008000D460FF041FB2368064600211868C7
:1057D400AF68AD890FF05BFA20B32EB31422002119
:1057E40001A818F0C9F8236831461B6830460093B5
:1057F40000238DF80830ADF8123001230B4A8DF8E0
:1058040014306B460397ADF810500EF002FB9DF870
:10581400143023B9019911B12046FFF78BFF002002
:1058240007B0F0BD1220FBE70120F9E77742010041
:105834008B892DE9F04104460D46002B56D00121F9
:1058440005F108000FF0F9FA54F8083C0746002B5C
:105854004CD02A4A002394460178A4F1080612F891
:105864003300884216D1D90002EBC30393F80280B7
:10587400B8F1010F1CD0B8F1050F25D1B834D4E824
:10588400EF2F42F00203C4E8E03F0028F7D112F002
:10589400020F18E001330D2BE1D108460EF08CFA0B
:1058A40020B319B30623002230460EF09DFD1DE0FF
:1058B400B834D4E8EF3F43F00102C4E8E02F0028F5
:1058C400F7D113F0010F11D10CEB01035A78A98918
:1058D40091420ED35B68294630469847B8F1010FD0
:1058E400034603D110B139780029DCD10020BDE88A
:1058F400F081B8F1010FF9D10423F4E710EE0100AF
:105904002DE9F043044687B001F108000D460FF07D
:105914009CFA2368064601211868D5F80890AD89D9
:105924000FF0B5F900283FD0002E3FD018220021F7
:10593400684618F021F80022132120460EF02FFDAE
:10594400019078B323684FF012081B680027009376
:10595400012331468DF8143030466B46144AADF8B5
:1059640010508DF80880ADF81270CDF80C900EF040
:1059740050FA9DF8145075B1019800F0E7FF3246D3
:10598400414620469DF814300EF02EFD3D46284633
:1059940007B0BDE8F08301990029F8D02046FFF74D
:1059A400C9FEF4E70E25F2E71225F0E70125EEE73C
:1059B400774201002DE9F0410C7B0546043CE4B23A
:1059C400022C08468CB001D0102C6ED10421083072
:1059D4000FF033FA0DF1080806884788011D2246A6
:1059E40040460DF082FC002861D0002E3AD00024FD
:1059F400002F36D0BE4235D84FF42053404601A97B
:105A04008DF80440ADF806300DF045FC002834D183
:105A1400AC681422002107A817F0AEFF012211215F
:105A240020460EF0FEFC0990002840D001210830E9
:105A3400CDE907580FF0D0F94FF000080A9007ABF2
:105A440080F80080394630461A4ACDF82C800EF092
:105A5400E0F90A9B1C781CBB099800F077FF0A2325
:105A640018E03E4601233246102128460EF0BCFCC5
:105A7400002420460CB0BDE8F08142F60103404604
:105A840007A98DF81C40ADF81E300DF004FC002869
:105A9400BED010233246102128460EF0A5FCE8E7BC
:105AA40028460999FFF746FEE2E70424E1E70E24BD
:105AB400DFE700BF655400002DE9F043866885B038
:105AC400102204460D466846002117F055FF0022B7
:105AD4000F2130460EF0A5FC029058B34FF0010898
